:100000000C9462000C948A000C948A000C948A0070
:100010000C948A000C948A000C948A000C948A0038
:100020000C948A000C948A000C948A000C948A0028
:100030000C948A000C948A000C948A000C948A0018
:100040000C9451030C948A000C94BD010C949701FC
:100050000C948A000C948A000C948A000C948A00F8
:100060000C948A000C948A000000000023002600F3
:10007000290004040404040404040202020202022B
:10008000030303030303010204081020408001025C
:1000900004081020010204081020000000080002DB
:1000A0000100000304070000000000000000000041
:1000B0000000240027002A0000000000250028007E
:1000C0002B00901311241FBECFEFD8E0DEBFCDBFB1
:1000D00026E0AAE5B5E001C01D92A239B207E1F71A
:1000E00015E0A0E0B1E0E2E1F0E302C005900D927E
:1000F000AA35B107D9F710E0C2E6D0E004C02197D5
:10010000FE010E94FC15C136D107C9F70E94220BDF
:100110000C9407180C940000089580E090E0089576
:10012000FC01538D448D252F30E0842F90E0821BFD
:10013000930B541710F0CF96089501970895FC0182
:10014000918D828D981761F0828DDF01A80FB11D0E
:100150005D968C91928D9F5F9F73928F90E0089532
:100160008FEF9FEF0895FC01918D828D981731F0EC
:10017000828DE80FF11D858D90E008958FEF9FEF40
:100180000895FC01918D228D892F90E0805C9F4F16
:10019000821B91098F739927089588EA95E00E9440
:1001A000C10021E0892B09F420E0822F0895FC0191
:1001B000848DDF01A80FB11DA35ABF4F2C91848DF0
:1001C00090E001968F739927848FA689B7892C9325
:1001D000A089B1898C91837080648C93938D848D78
:1001E000981306C00288F389E02D80818F7D80837B
:1001F0000895EF92FF920F931F93CF93DF93EC013B
:1002000081E0888F9B8D8C8D981305C0E889F989D2
:10021000808185FD26C0F62E0B8D10E00F5F1F4FED
:100220000F731127E02E8C8DE8120CC00FB607FC5F
:10023000FACFE889F989808185FFF5CFCE010E9448
:10024000D700F1CF8B8DFE01E80FF11DE35AFF4F70
:10025000F0829FB7F8940B8FEA89FB8980818062D6
:100260000AC09FB7F894EE89FF896083E889F9890D
:1002700080818370806480839FBF81E090E0DF9104
:10028000CF911F910F91FF90EF900895CF93DF933F
:10029000EC01888D8823C9F0EA89FB89808185FD7E
:1002A00005C0A889B9898C9186FD0FC00FB607FCDF
:1002B000F5CF808185FFF2CFA889B9898C9185FF20
:1002C000EDCFCE010E94D700E7CFDF91CF91089507
:1002D00080E090E0892B29F00E94CD0081110C94E0
:1002E000000008953FB7F8948091A0059091A10572
:1002F000A091A205B091A30526B5A89B05C02F3FEC
:1003000019F00196A11DB11D3FBFBA2FA92F982F3B
:100310008827820F911DA11DB11DBC01CD0142E0B6
:10032000660F771F881F991F4A95D1F708951F926E
:100330000F920FB60F9211242F933F934F935F9319
:100340006F937F938F939F93AF93BF93EF93FF939D
:1003500088EA95E00E94D700FF91EF91BF91AF919D
:100360009F918F917F916F915F914F913F912F91CD
:100370000F900FBE0F901F9018951F920F920FB6FF
:100380000F9211242F938F939F93EF93FF93E091FC
:10039000B805F091B9058081E091BE05F091BF05E7
:1003A00082FD12C090818091C1058F5F8F73209173
:1003B000C205821751F0E091C105F0E0E855FA4F0F
:1003C000958F8093C10501C08081FF91EF919F912E
:1003D0008F912F910F900FBE0F901F901895833023
:1003E00081F028F4813099F08230A1F008958730AF
:1003F000A9F08830B9F08430D1F4809180008F7DED
:1004000003C0809180008F7780938000089584B529
:100410008F7702C084B58F7D84BD08958091B00030
:100420008F7703C08091B0008F7D8093B0000895D6
:100430001F93CF93DF93282F30E0F901E656FF4F4B
:100440008491F901EA57FF4FD491F901EE58FF4F1B
:10045000C491CC23C1F0162F81110E94EF01EC2F23
:10046000F0E0EE0FFF1FE854FF4FA591B4919FB746
:10047000F894111104C08C91D095D82302C0EC914E
:10048000DE2BDC939FBFDF91CF911F910895CF9317
:10049000DF9390E0FC01EA57FF4F2491FC01EE58F6
:1004A000FF4F8491882361F190E0880F991FFC0130
:1004B000E255FF4FC591D491FC01E854FF4FA5913F
:1004C000B491611109C09FB7F89488812095822367
:1004D0008883EC912E230BC0623061F49FB7F894AF
:1004E0008881322F309583238883EC912E2B2C9397
:1004F0009FBF06C08FB7F894E8812E2B28838FBF4B
:10050000DF91CF9108951F93CF93DF93182FEB01C5
:1005100061E00E944702209711F460E004C0CF3FE1
:10052000D10539F461E0812FDF91CF911F910C94B7
:100530001802E12FF0E0E656FF4FE491E330F9F0C6
:1005400048F4E130B9F0E230A1F584B5806284BDB1
:10055000C8BD34C0E730E9F0E83019F1E43049F5BE
:1005600080918000806280938000D0938B00C09344
:100570008A0024C084B5806884BDC7BD1FC0809137
:100580008000806880938000D0938900C0938800A9
:1005900015C08091B00080688093B000C093B30014
:1005A0000DC08091B00080628093B000C093B40011
:1005B00005C0C038D1050CF0B5CFAFCFDF91CF91DA
:1005C0001F9108958E3008F08E508770806480935C
:1005D0007C0080917A00806480937A0080917A0018
:1005E00086FDFCCF809178002091790090E0922BDD
:1005F00008958EE00E94E20289359240ACF08FE0CF
:100600000E94E202893592407CF082E10E94E2027F
:10061000893592404CF083E10E94E2028935924094
:100620001CF080E090E0089581E090E008958F92C2
:100630009F92AF92BF92CF92DF92EF92FF926B01A7
:100640007C010E9472014B015C01C114D104E104E0
:10065000F104F1F00E947201DC01CB0188199909C3
:10066000AA09BB09883E9340A105B10570F321E0BA
:10067000C21AD108E108F10888EE880E83E0981EBE
:10068000A11CB11CC114D104E104F10419F7DDCFA0
:10069000FF90EF90DF90CF90BF90AF909F908F90A2
:1006A00008951F920F920FB60F9211242F933F932C
:1006B0008F939F93AF93BF938091A4059091A505CD
:1006C000A091A605B091A70530919F0523E0230FC7
:1006D0002D3720F40196A11DB11D05C026E8230F7A
:1006E0000296A11DB11D20939F058093A4059093B0
:1006F000A505A093A605B093A7058091A0059091AC
:10070000A105A091A205B091A3050196A11DB11D5F
:100710008093A0059093A105A093A205B093A30593
:10072000BF91AF919F918F913F912F910F900FBEED
:100730000F901F9018950C942F15811114C02091C3
:100740009C05422F50E080919A0590E00197481750
:10075000590724F42F5F20939C0505C048175907BB
:1007600011F410929C0580919C05811102C080912A
:100770009A05815080939C050895EF92FF920F9304
:100780001F93CF93DF937B018A01E901BC0186E0CF
:100790000E948302B70185E00E948302B8018BE0CA
:1007A0000E948302BE0183E0DF91CF911F910F91E0
:1007B000FF90EF900C9483022F923F924F925F92A2
:1007C0006F927F928F929F92AF92BF92CF92DF9261
:1007D000EF92FF920F931F93CF93DF93CDB7DEB7C6
:1007E00060970FB6F894DEBF0FBECDBF9A838983A2
:1007F0007C836B831A01290121E0C216D10409F51B
:1008000092010E94BD0310928500109284008BE13A
:1008100096E0089F9001099F300D189F300D11241C
:100820003A8329830E94F902892B09F040C0809104
:1008300084009091850029813A818217930790F373
:1008400036C032E0C316D10409F013C184EF91E041
:10085000E89EB001E99E700DF89E700D112477FF9F
:1008600002C061507E4F672F770F770B6595072E7B
:10087000000C880B990B0E94121420E030E04AE72C
:1008800051E40E9471140E949E157E836D8300E0E6
:1008900010E0E12CF12CC12CD12CA12CB12C612C1D
:1008A000712C0E94F902892B09F4BFC03BC020E0E3
:1008B00030E040E050E060E070E080E090E00E94D6
:1008C000BD0310928500109284000E94F902892BCA
:1008D00009F0CFC0809184009091850029813A81F0
:1008E0008217930790F3C5C0809184009091850092
:1008F0002D813E818217930720F40E94F902892BF3
:1009000099F3A40CB51CC20CD31C8B819C81E80EFE
:10091000F91E29813A81020F131F3FEF63167104FC
:1009200009F0BFCF649CC001659C900D749C900D34
:10093000112498878F83629C9001639C300D729C78
:10094000300D11243A8729872B813C81629EC0019A
:10095000639E900D729E900D11249C878B87298138
:100960003A81629EC001639E900D729E900D11248B
:100970009E878D87812C912CA12CB12CC12CD12C40
:10098000E12CF12C0FEF10E06114710409F471C037
:100990000E94F902892B09F06CC08F8198858E0D19
:1009A0009F1DB8010E94D4159B0189859A858C0DE5
:1009B0009D1DB8010E94D415788B6F878B859C850F
:1009C0008A0D9B1DB8010E94D415FB018D859E8563
:1009D000880D991DB8010E94D415CB014F85588907
:1009E000BF010E94BD0381E0681A71081092850062
:1009F000109284000E94F902892B69F0E418F5082E
:100A0000C218D3088B819C81A81AB90A29813A811E
:100A1000821A930AB9CF80918400909185002D812C
:100A20003E818217930730F3E9CFC5016FEF70E085
:100A30000E94D4159B01C6016FEF70E00E94D4158F
:100A40004B01C7016FEF70E00E94D415FB01C80194
:100A50006FEF70E00E94D415CB01A401BF010E948A
:100A6000BD033FEF631A730A109285001092840051
:100A700044CF60960FB6F894DEBF0FBECDBFDF91B6
:100A8000CF911F910F91FF90EF90DF90CF90BF908B
:100A9000AF909F908F907F906F905F904F903F901E
:100AA0002F9008952F923F924F925F926F927F9274
:100AB0008F929F92AF92BF92CF92DF92EF92FF926E
:100AC0000F931F93CF93DF93CDB7DEB72C970FB65D
:100AD000F894DEBF0FBECDBF4C0188EC90E00E94C1
:100AE00002165C01C40183559C4F0E949B03282F72
:100AF00030E03C872B8789010150110917FF02C0A4
:100B00000D5F1F4F15950795159507950F5F1F4FA3
:100B100089E1889D3001899D700C11244501412C8B
:100B2000512C33E0630E731EC301840D951D0E948A
:100B30009B03282F30E0B90146E0759567954A95EB
:100B4000E1F7A901E4E055954795EA95E1F7F4014D
:100B500071836083660F771F660F771FFA01E61BAC
:100B6000F70BBF01F40173836283359527953595A3
:100B70002795440F551F440F551F241B350B3583F4
:100B80002483837090E097838683FFEF4F1A5F0A78
:100B900028E0820E911C0415150531F683E090E0E3
:100BA0000E949B03882309F499C000919C0510E0E2
:100BB0004801880C991CC4018B519D4F0E949B03D6
:100BC000682E712CC4018A519D4F0E949B03E82F0F
:100BD000F0E0FA87E987F801E65AFA4F8081282F7A
:100BE00030E03A832983F801E659FA4F8081E82FF3
:100BF000F0E0FC83EB83F801E658FA4F8081282F60
:100C000030E03E832D83F801E657FA4F2080312CE7
:100C10008BE196E0689E2001699E500C789E500CF6
:100C200011240E94F902892B09F058C0B886AF82BE
:100C3000812C912C8B859C858816990691F30E94B6
:100C4000F902892B71F7EF81F88581919191F887ED
:100C5000EF830097B1F420E030E040E050E060E046
:100C600070E080E090E00E94BD030E94F902892BB1
:100C700089F5809184009091850084159505A8F3ED
:100C800029C081309105A9F491014D815E816B816C
:100C90007C8189819A810E94BD030E94F902892B7F
:100CA000C9F4809184009091850084159505A8F37E
:100CB00011C0029779F482E0C82ED12CE984FA841D
:100CC000830191014D815E816B817C8189819A8153
:100CD0000E94DC03FFEF8F1A9F0AACCFA114B1046E
:100CE000D9F0C5012C960FB6F894DEBF0FBECDBF6C
:100CF000DF91CF911F910F91FF90EF90DF90CF90F8
:100D0000BF90AF909F908F907F906F905F904F902B
:100D10003F902F900C949A162C960FB6F894DEBF45
:100D20000FBECDBFDF91CF911F910F91FF90EF903C
:100D3000DF90CF90BF90AF909F908F907F906F90FB
:100D40005F904F903F902F9008954F925F926F92D7
:100D50007F928F929F92AF92BF92CF92DF92EF924B
:100D6000FF920F931F93CF93DF93CDB7DEB7A19779
:100D70000FB6F894DEBF0FBECDBF7C016B015A01E8
:100D800049016DE475E088EA95E00E94FA0A209135
:100D90009C0530E040E050E019A28E010F5D1F4F2E
:100DA0008AE0482E512C612C712CCA01B901A30193
:100DB00092010E944515605DF80162938F01211533
:100DC00031054105510589F7BF0188EA95E00E9488
:100DD000FA0A84E395E00E940F0B83E090E00E9402
:100DE0009B03882351F09401A501B601C7010E941D
:100DF000BD030E94F902892BE1F3A1960FB6F89486
:100E0000DEBF0FBECDBFDF91CF911F910F91FF903D
:100E1000EF90DF90CF90BF90AF909F908F907F909A
:100E20006F905F904F9008954F925F926F927F9274
:100E30008F929F92AF92BF92CF92DF92EF92FF92EA
:100E40000F931F93CF93DF9300919C0510E0E8016F
:100E5000CC0FDD1FCE018B519D4F0E949B03682E4E
:100E6000CE018A519D4F0E949B03782EF801E65ACD
:100E7000FA4F4080512CF801E659FA4FC081D0E07A
:100E8000F801E658FA4FA080B12CF801E657FA4F66
:100E90008080912C80919B058130D1F018F08230B8
:100EA00079F147C09401A501BE01C201DF91CF9144
:100EB0001F910F91FF90EF90DF90CF90BF90AF9078
:100EC0009F908F907F906F905F904F900C94A506AD
:100ED00083E090E00E949B03882359F1712C0E94CB
:100EE000F902892B31F5CC24C394D12CE12CF12CBF
:100EF00083019401A501BE01C2010E94DC03EFCF72
:100F000083E090E00E949B03882399F0672C712C6A
:100F10000E94F902892B69F482E0C82ED12C73015A
:100F200000E010E09401A501BE01C2010E94DC03B3
:100F3000EFCFDF91CF911F910F91FF90EF90DF9056
:100F4000CF90BF90AF909F908F907F906F905F9069
:100F50004F900895CF92DF92EF92FF92CF93DF935D
:100F60006B017C01EA01CB010E949B0390E08C178E
:100F70009D0751F06C2FC601DF91CF91FF90EF904C
:100F8000DF90CF900C943715DF91CF91FF90EF90C9
:100F9000DF90CF900895CF92DF92EF92FF920F9360
:100FA0001F93CF93DF936C017A018B01C0E0D0E0F7
:100FB000CE15DF0581F0D8016D918D01D601ED913F
:100FC000FC910190F081E02DC6010995892B11F06B
:100FD0002196EECF7E01C701DF91CF911F910F9136
:100FE000FF90EF90DF90CF9008950E94E9170F9344
:100FF0001F93CF93DF93EC0188819981009729F0AB
:101000002A813B812617370788F48B016F5F7F4F5A
:101010000E942317009761F0998388831B830A83BA
:101020002C813D81232B11F4FC01108281E001C051
:1010300080E0DF91CF911F910F910895EF92FF9281
:101040000F931F93CF93DF93EC017B018A01BA01C9
:101050000E94F7072881398181110DC021153105C2
:1010600019F0C9010E949A16198218821D821C82E9
:101070001B821A8206C01D830C83B701C9010E941E
:101080000018CE01DF91CF911F910F91FF90EF904B
:101090000895E8EAF5E0A089B18982E08C93A485FF
:1010A000B5851C92A685B7858FEC8C93108EA4898C
:1010B000B58986E08C93A289B3898C9180618C93E9
:1010C000A289B3898C9188608C93A289B3898C9111
:1010D00080688C930288F389E02D80818F7D8083E6
:1010E00008952F923F924F925F926F927F928F92CC
:1010F0009F92AF92BF92CF92DF92EF92FF920F93A7
:101100001F93CF93DF9300D000D01F92CDB7DEB7EF
:10111000382E6D83242E09831A832B833C831092EF
:101120008500109284008EE00E94E2028935924090
:10113000DCF18FE00E94E20289359240ACF180E15F
:101140000E94E202893592407CF181E10E94E20234
:10115000893592404CF1809184009091850024E083
:10116000969587952A95E1F7A0E0B0E029813A812C
:101170004B815C8182179307A407B507A0F6809185
:1011800084009091850034E0969587953A95E1F733
:10119000A0E0B0E08C159D05AE05BF0520F680915E
:1011A000840090918500BFCF4090840050908500CE
:1011B00084E0569447948A95E1F7612C712C8EE077
:1011C0000E94E202883C9105BCF48EE00E94E2029B
:1011D000883C9105D4F3332061F089819A81AB81F9
:1011E000BC81481659066A067B0618F08BE090E031
:1011F00036C081E090E033C08FE00E94E202883C7C
:101200009105A4F48FE00E94E202883C9105D4F39A
:101210009D81992341F04C145D046E047F0418F005
:101220008CE090E01CC082E090E019C080E10E9458
:10123000E202883C91050CF072CF80E10E94E2024C
:10124000883C9105D4F3222041F0481459046A04E3
:101250007B0418F08DE090E002C083E090E00F90F6
:101260000F900F900F900F90DF91CF911F910F91E2
:10127000FF90EF90DF90CF90BF90AF909F908F90B6
:101280007F906F905F904F903F902F900895CF92F6
:10129000DF92EF92FF920F931F932FB7F894C090B5
:1012A000A405D090A505E090A605F090A7052FBF56
:1012B000DC01CB018C0D9D1DAE1DBF1D4FB7F894F9
:1012C0000091A4051091A5052091A6053091A705D0
:1012D0004FBF0C151D052E053F0528F080179107FF
:1012E000A207B30758F71F910F91FF90EF90DF907F
:1012F000CF900895FC01808191810C949A16CF9330
:10130000DF93EC0140E050E069E271E00E941E08CA
:10131000CE01DF91CF910895EF92FF920F931F932B
:10132000CF93DF9300D0CDB7DEB78C0169831A82EB
:10133000FC01E480F580FFEFEF1AFF0AB7010E947D
:10134000F707882381F0F80120813181848195811C
:10135000BE016F5F7F4F820F931F0E940018F8013C
:10136000F582E48281E00F900F90DF91CF911F9181
:101370000F91FF90EF900895FC011182108213826B
:1013800012821582148240E050E069E271E00C9410
:101390001E08FB01DC0111961C921E9213961C92F2
:1013A0001E92129715961C921E92149786179707F5
:1013B00049F0608171816115710521F04481558189
:1013C0000C941E080895FC0124813581232B31F4EF
:1013D00021E061157105A1F0FB0108C0FC018081CD
:1013E00091816115710531F421E0FC018081882330
:1013F00039F005C00E94F71721E0892B09F020E0A1
:10140000822F0895FC01248135816217730720F42F
:1014100080819181009729F410928D068DE896E0E5
:101420000895860F971F08954F925F926F927F9253
:101430008F929F92AF92BF92CF92DF92EF92FF92E4
:101440000F931F93CF93DF9300D000D000D0CDB780
:10145000DEB76C01FC018480958000E010E0EE2492
:10146000E394F12C8016910671F0B801C6010E9438
:10147000020AFC0180818C3219F4FFEFEF1AFF0A97
:101480000F5F1F4FEFCF87010F5F1F4FC8010E94F3
:1014900002167C01FC011192CF018E199F090817D9
:1014A0001907C9F7CE0101960E94BC0900E010E0BF
:1014B000AA24A394B12C340181E0681A7108801623
:1014C0009106B9F1B801C6010E94020AFC018081AF
:1014D0008C3281F00615170569F0B801C6010E942B
:1014E000020AFC016081CE0101960E948C090F5F07
:1014F0001F4FE5CFB801C6010E94020AFC016081BE
:10150000CE0101960E948C0927014A0C5B1C89813F
:101510009A81009761F00E94CF13F2016083FFEF80
:10152000AF1ABF0ACE0101960E947F09E0CF60E0AA
:10153000F4CFF701A082CE0101960E947A09C7017B
:1015400026960FB6F894DEBF0FBECDBFDF91CF91C8
:101550001F910F91FF90EF90DF90CF90BF90AF90D1
:101560009F908F907F906F905F904F900895EF9233
:10157000FF920F931F93CF93DF938C01FC01E480C4
:10158000F58061307105C1F4C0E0D0E0EC16FD06D5
:1015900049F1BE01C8010E94020AFC012081822F8C
:1015A000022E000C990BC0970A9720F02C3211F0F4
:1015B00080E019C02196EACF672B99F4C0E0D0E013
:1015C000EC16FD0679F0BE01C8010E94020AFC017A
:1015D0008081082E000C990BC0970A9748F7219636
:1015E000EFCF01C081E0DF91CF911F910F91FF906C
:1015F000EF9008956115710579F0FB0101900020CD
:10160000E9F73197AF01461B570BDC01ED91FC91D7
:101610000280F381E02D099480E090E00895CF935B
:10162000DF93BC0188EA95E00E94FA0AEC0167E2C8
:1016300071E088EA95E00E94FA0A8C0F9D1FDF9105
:10164000CF910895CF93DF93CDB7DEB76A970FB6EA
:10165000F894DEBF0FBECDBF789484B5826084BDA0
:1016600084B5816084BD85B5826085BD85B58160A6
:1016700085BD80916E00816080936E001092810024
:1016800080918100826080938100809181008160DF
:1016900080938100809180008160809380008091A0
:1016A000B10084608093B1008091B000816080932C
:1016B000B00080917A00846080937A0080917A00F3
:1016C000826080937A0080917A00816080937A00B2
:1016D00080917A00806880937A001092C100109205
:1016E000890610928A0610928B0610928C06109230
:1016F0004706109248061092490610924A0668EB77
:101700007BE080E090E00E94470988EA95E09093B2
:101710008806809387060E9449082FB7F894809125
:10172000A4059091A505A091A605B091A7052FBF8E
:101730008093470690934806A0934906B0934A06C3
:1017400068E171E080918706909188060E94FA0A0C
:101750006AE070E080E090E00E94470981E08093B9
:101760005B0693EA94BD82E085BD9093B0008093C0
:10177000B1001092800085E0809381001092820079
:1017800010926F0017BC18BC1092B3001092B400F6
:101790000E94490861E086E00E94470261E085E01E
:1017A0000E94470261E08BE00E94470261E083E013
:1017B0000E94470261E082E00E94470260E088E008
:1017C0000E94470261E087E00E94470261E082E0F8
:1017D0000E94180220E030E040E050E060E070E05D
:1017E0008FEF90E00E94BD0310928500109284005C
:1017F000609184007091850080E090E00E94101458
:1018000020E034E244EF55E40E940B1487FDF0CF52
:1018100020E030E040E050E06FEF70E080E090E0EA
:101820000E94BD0310928500109284006091840094
:101830007091850080E090E00E94101420E034E276
:1018400044EF55E40E940B1487FDF0CF20E030E018
:101850004FEF50E060E070E080E090E00E94BD0358
:101860001092850010928400609184007091850030
:1018700080E090E00E94101420E034E244EF55E450
:101880000E940B1487FDF0CF20E030E040E050E0F4
:1018900060E070E080E090E00E94BD03812C912C1C
:1018A0005401C12CD12C760100E010E0980140E0F9
:1018B00060E080E00E9471083C01E2EAF0E084917F
:1018C000EEE8F0E01491EAE7F0E004910023B9F0CB
:1018D00081110E94EF01E02FF0E0EE0FFF1FE859A9
:1018E000FF4FA591B491EC911E2349F0F1E06F16E2
:1018F000710479F480919E058111ADC115C080916C
:101900009E05882309F4AAC1F1E06F16710409F459
:10191000A2C123E06216710409F09DC1EBCF21E062
:101920006216710409F0F6C640919C0550E061E032
:1019300070E080E090E00E94AA0740919B0550E093
:1019400062E070E080E090E00E94AA0741E050E091
:1019500067E070E080E090E00E94AA075AE5852EDB
:1019600055E0952E6AE6A62E65E0B62E7AE7C72EDC
:1019700075E0D72EEAE8EE2EE5E0FE2E0BE713E049
:10198000C8010E949B03F40181934F01C801019695
:101990000E949B03F50181935F01C80102960E949A
:1019A0009B03F60181936F01C80103960E949B037C
:1019B000F70181937F010C5F1F4F073BF3E01F0787
:1019C000F9F681E080939E0523E06216710409F028
:1019D0009CC687E090E00E949B03813009F095C689
:1019E00081E090E00E949B0380939C0582E090E060
:1019F0000E949B0380939B0583E090E00E949B03E1
:101A000090E08A599C4F0E949B0380939A0540E086
:101A100050E067E070E080E090E00E94AA078091CB
:101A20009C0590E0FC01E657FA4F208130E0FC0174
:101A3000E658FA4F408150E0FC01E659FA4F6081C8
:101A400070E0FC01E65AFA4F808190E00E94A50602
:101A5000812C912C54014CEDC42E45E0D42EE12C68
:101A6000F12C00E010E0980140E061E080E00E948D
:101A700071088330910581F034F48130910551F083
:101A8000029781F0D5C08B309105B9F00C9709F41D
:101A9000D4C0CEC080E001C081E00E949D030E94BE
:101AA0001407C6C080919B05823019F410929B05E3
:101AB000F6CF8F5F80939B05F2CF20E030E040E0CF
:101AC00050E060E070E08FEF90E00E94BD03109264
:101AD000850010928400609184007091850080E000
:101AE00090E00E94101420E034E244EF55E40E949C
:101AF0000B1487FDF0CF3CED832E35E0932EA12C07
:101B0000B12CC12CD12C76010CED15E020E030E099
:101B100041E060E081E00E9471088B30910509F49A
:101B200082C03CF48130910579F0039709F452C0EA
:101B30007FC08D30910509F476C0469709F078C0D2
:101B400081E080939D0574C080E395E00E940F0BB7
:101B500060E082E00E941802812C912C54012CED4F
:101B6000C22E25E0D22EE12CF12C00E010E09801ED
:101B700040E061E080E00E9471088C0102301105B4
:101B8000D1F0812C912C5401C12CD12C760100E094
:101B900010E0980140E060E080E00E9471088C0154
:101BA0008130910511F480E003C0039739F781E09B
:101BB0000E949D03E3CF0E94140735C08430910535
:101BC000FCF48130910521F1029769F180919D0526
:101BD000811129C098EE892E93E0992EA12CB12C69
:101BE000C12CD12C760108EE13E020E030E041E07A
:101BF00060E081E00E94710883309105F9F60EC023
:101C00008B30910541F00D9709F783E090E008C013
:101C100080E090E005C081E090E002C082E090E0CA
:101C20000E945205D3CF80919D05882309F463CF8C
:101C300080919D05882309F40BCF10929E05109288
:101C40009D0520E030E040E050E060E070E080E0A2
:101C500090E00E94BD030E94680120CE22E062163F
:101C6000710409F05CCE8AE291E00E940F0BCE0174
:101C700043960E94BC0988EA95E00E94C100892B26
:101C8000D1F388EA95E00E94C100892B81F062E0DF
:101C900070E080E090E00E94170388EA95E00E94DF
:101CA0009F00682FCE0143960E948C09EACF8FE3F4
:101CB00091E00E940F0BCE010D960E94BC0965E4D5
:101CC00071E0CE010D960E94E3098111E0C289E422
:101CD00091E00E940F0BCE010D960E947F0988EAC9
:101CE00095E00E94C100892BD1F388EA95E00E941B
:101CF000C100892B81F062E070E080E090E00E94FA
:101D0000170388EA95E00E949F00682FCE010D9688
:101D10000E948C09EACF49895A896D857E8588EAB7
:101D200095E00E94CB0767E271E088EA95E00E94A7
:101D3000FA0A65E070E080E090E00E94170368E630
:101D400071E0CE010D960E94E309882309F463C077
:101D500089E791E00E940F0B84E891E00E940F0B4D
:101D60008AEA91E00E940F0BCE0107960E94BC09FF
:101D700088EA95E00E94C100892BD1F388EA95E0BA
:101D80000E94C100892B81F062E070E080E090E069
:101D90000E94170388EA95E00E949F00682FCE01F9
:101DA00007960E948C09EACFBE01695F7F4FCE0182
:101DB00001960E94C90960E070E0CE0101960E9480
:101DC000B70A182FCE0101960E947A09112309F44F
:101DD00048C2BE01695F7F4FCE0101960E94C909CA
:101DE000CE0101960E94140A8C01CE0101960E9438
:101DF0007A09F80181918F5F90E09F01201B310BE0
:101E00008217930709F487C1219121502C30A8F340
:101E100085E692E0CEC165EE71E0CE010D960E949E
:101E2000E309882309F486C088EF91E00E940F0B34
:101E300083E092E00E940F0B8AEA91E00E940F0B70
:101E4000CE0107960E94BC0988EA95E00E94C10075
:101E5000892BD1F388EA95E00E94C100892B81F09B
:101E600062E070E080E090E00E94170388EA95E06D
:101E70000E949F00682FCE0107960E948C09EACF2E
:101E8000BE01695F7F4FCE0101960E94C90961E0E2
:101E900070E0CE0101960E94B70A182FCE0101967C
:101EA0000E947A09112309F4DCC1BE01695F7F4FEA
:101EB000CE0101960E94C909CE0101960E94140A22
:101EC0007C01CE0101960E947A09F7011191CC2480
:101ED000C394C10E21E030E0D12CC216D30609F420
:101EE000E3C181918D3050F48823A9F0C90162E0EB
:101EF00070E00E94D415892B59F003C081508F30B7
:101F000050F4C90162E070E00E94D415019719F401
:101F10002F5F3F4FE2CF10FF03C084E392E002C087
:101F200085E692E00E940F0BE114F10409F49DC1D3
:101F3000C70146C163E872E0CE010D960E94E30935
:101F4000882309F47CC085E992E00E940F0B80EAA7
:101F500092E00E940F0B8BEC92E00E940F0BCE01DF
:101F600007960E94BC0988EA95E00E94C100892B6F
:101F7000B1F488EA95E00E94C100892BA1F362E0E8
:101F800070E080E090E00E94170388EA95E00E94EC
:101F90009F00682FCE0107960E948C09EACFBE01F0
:101FA000695F7F4FCE0101960E94C90961E070E030
:101FB000CE0101960E94B70A182FCE0101960E9409
:101FC0007A09112309F4FFC0BE01695F7F4FCE017A
:101FD00001960E94C909CE0101960E94140A8C0143
:101FE000CE0101960E947A09F8013190EE24E39423
:101FF000E30C21E030E0F12CE216F30609F4ADC168
:1020000081918D3050F48823A9F0C90162E070E01D
:102010000E94D415892B59F003C081508F3050F4A1
:10202000C90162E070E00E94D415019719F42F5F96
:102030003F4FE2CF30FE62C282EB93E0BAC064E36E
:1020400074E0CE010D960E94E309882309F4BEC016
:1020500084E494E00E940F0B8FE494E00E940F0B45
:102060008BEC92E00E940F0BCE0107960E94BC09F8
:1020700088EA95E00E94C100892BD1F388EA95E0B7
:102080000E94C100892B81F062E070E080E090E066
:102090000E94170388EA95E00E949F00682FCE01F6
:1020A00007960E948C09EACFBE01695F7F4FCE017F
:1020B00001960E94C90961E070E0CE0101960E947C
:1020C000B70A182FCE0101960E947A09112309F44C
:1020D0007AC0BE01695F7F4FCE0101960E94C90997
:1020E000CE0101960E94140A8C01CE0101960E9435
:1020F0007A09F801319021E0230D30E04801CF0149
:10210000801B910B2817390709F4FBC1819181507D
:102110008F30A0F3F3C1F80121802A94222D30E002
:102120003A8F298F3CE3239E1001112445E1240EB0
:10213000311C8BE7C82E83E0D82EE12CF12C510105
:10214000412C512C3201C5010E949B03482F50E0C5
:10215000C701B601640D751D861D971D0E94AA0753
:102160003FEFA31AB30A4FEF441A540A640A740AE1
:1021700084E0481651046104710429F794E0290EA3
:10218000311CE4E0CE0ED11CE11CF11CF7EBCF16A4
:10219000F3E0DF06E104F10491F6498D5A8D4959C7
:1021A0005C4F63E070E080E090E00E94AA0788EC5A
:1021B00091E00E940F0B0115110509F456C0C801EA
:1021C0000E949A1652C08FE094E04DC064E774E01C
:1021D000CE010D960E94E309882309F44BC085E8DF
:1021E00094E00E940F0B80E994E00E940F0B81ECB9
:1021F00094E00E940F0BCE0107960E94BC0988EA6A
:1022000095E00E94C100892BD1F388EA95E00E94F5
:10221000C100892B81F062E070E080E090E00E94D4
:10222000170388EA95E00E949F00682FCE01079669
:102230000E948C09EACF60E070E0CE0107960E9410
:10224000020AFC018081853384F460E070E0CE01F5
:1022500007960E94020AFC01808181330CF0ABC119
:1022600004C08BEC91E00E940F0BCE0107960E94F8
:102270007A0925CD65E471E0CE010D960E94E3094F
:1022800081111DCD85E095E00E940F0B18CD82E2F3
:1022900095E00E940F0BCE010D960E947A09CE01A7
:1022A00043960E947A09D7CC10FD35CE169567016A
:1022B0000BE7802E03E0902EA12CB12C00E010172C
:1022C000C9F1412C512C3201F601218130E021501D
:1022D0003109FCE3F29FC001F39F900D1124F60138
:1022E0002281F4E02F9F800D911D11244196840DD1
:1022F000951D0E949B03482F50E0C301B201680D59
:10230000791D8A1D9B1D0E94AA072FEF421A520AAF
:10231000620A720A34E04316510461047104A1F6A2
:102320000F5F42E0C40ED11C84E0880E911CA11CFA
:10233000B11CC5CF412F50E066E773E080E090E02C
:102340000E94AA074DE050E063E070E080E090E07A
:102350000E94AA0788EC91E0E5CD30FC6BCE81EFBE
:1023600092E00E940F0BCE0107960E947F0988EA37
:1023700095E00E94C100892BD1F388EA95E00E9484
:10238000C100892B81F062E070E080E090E00E9463
:10239000170388EA95E00E949F00682FCE010796F8
:1023A0000E948C09EACFBE01695F7F4FCE01019682
:1023B0000E94C90961E070E0CE0101960E94B70A4F
:1023C000F82ECE0101960E947A09FF2009F493C0ED
:1023D000BE01695F7F4FCE0101960E94C909CE01FF
:1023E00001960E94140A7C01CE0101960E947A098E
:1023F000F7018081982F937009F06EC090E0232D33
:1024000030E0220F331F8217930709F068C036941B
:102410005701FFEFAF1ABF0A4801212C321489F18E
:102420003501C12CD12CF30141913F0150E0F40161
:10243000818190E00197FCE3F89FB001F99F700D56
:102440001124F4018281F4E08F9F600D711D11242D
:102450006F5E7F4F6C0D7D1D072E000C880B990B56
:102460000E94AA072FEFC21AD20A34E0C316D10481
:10247000D1F6239444E0A40EB11C82E0880E911C96
:10248000CDCF88EC91E02DC0BE01695F7F4FCE01BA
:1024900001960E94C90961E070E0CE0101960E9498
:1024A000B70AF82ECE0101960E947A09FF2019F191
:1024B000BE01695F7F4FCE0101960E94C909CE011E
:1024C00001960E94140A7C01CE0101960E947A09AD
:1024D000F701808180FF3AC08CE193E002C085E57E
:1024E00093E00E940F0BE114F10409F464CEC701DC
:1024F0000E949A1660CE88E893E05BCE86EE93E069
:1025000058CE81EF92E00E940F0BCE0107960E94F9
:102510007F0988EA95E00E94C100892BD1F388EAFF
:1025200095E00E94C100892B09F4AECF62E070E013
:1025300080E090E00E94170388EA95E00E949F00E7
:10254000682FCE0107960E948C09E9CF90E0232DD9
:1025500030E0220F331F8217930709F65701FFEF70
:10256000AF1ABF0A212C321409F48BCF3501C12CCC
:10257000D12CF30141913F0150E0F4018181B6017A
:10258000680F711D680F711D6D517D4F072E000C76
:10259000880B990B0E94AA07FFEFCF1ADF0A22E0EF
:1025A000C216D10431F7239432E0A30EB11C42E0ED
:1025B000840E911CD8CF60E070E0CE0107960E9497
:1025C000020AFC010081CE0107960E947F0986E382
:1025D00095E00E940F0B88EA95E00E94C100892BCC
:1025E000D1F388EA95E00E94C100892B81F062E076
:1025F00070E080E090E00E94170388EA95E00E9476
:102600009F00682FCE0107960E948C09EACFEB84C9
:10261000FC84BE01695F7F4FCE0101960E94C9090B
:1026200060E070E0CE0101960E94B70A182FCE013B
:1026300001960E947A09112309F45FC0C12CD12CA4
:1026400010E0EC14FD0471F0B601CE0107960E9473
:10265000020AFC01808183330CF011E0FFEFCF1AF6
:10266000DF0AEFCF111111C0005310E0C80101972C
:1026700029E1289F6001299FD00C112433E0C30E6B
:10268000D31EA12CB12C912C13C085E692E0EBCD8A
:1026900044E6A416B10421F184E0B501981661F076
:1026A000CE0107960E94020A93949FEFA91AB90AD5
:1026B000EA14FB0469F714C0B7FE02C06D5F7F4FD8
:1026C00075956795759567956C0D7D1D072E000CAA
:1026D000880B990B40E050E00E94AA07912CE5CFAF
:1026E000B80164557C4F072E000C880B990BA7018D
:1026F0000E94AA0788EC91E0B6CDE5E6EE16F1045B
:102700000CF4AFCD82EE94E0AECD10929C05109209
:102710009B0572C933E06316710409F09CCA04C9B1
:10272000E8EAF5E01382128288EE93E0A0E0B0E0E0
:1027300084839583A683B7838AE091E09183808325
:1027400085EC90E09587848784EC90E09787868776
:1027500080EC90E0918B808B81EC90E0938B828B6E
:1027600082EC90E0958B848B86EC90E0978B868B47
:10277000118E128E138E148EE5E4F6E01682178207
:10278000108611861286138614861586168617867D
:10279000108A118A128A138A148A158A08951F933F
:1027A000FC0199278827BC01E89411911032E9F3C4
:1027B000193010F01E30C8F31B3251F01D3249F4AD
:1027C000689406C00E94F613610F711D811D911D52
:1027D000119110531A30B0F33EF490958095709596
:1027E00061957F4F8F4F9F4F1F910895592F482F0D
:1027F000372F262F660F771F881F991F660F771FA9
:10280000881F991F620F731F841F951F660F771F04
:10281000881F991F08950E944D1408F481E00895BF
:10282000E89409C097FB3EF490958095709561956A
:102830007F4F8F4F9F4F9923A9F0F92F96E9BB2720
:102840009395F695879577956795B795F111F8CF9C
:10285000FAF4BB0F11F460FF1BC06F5F7F4F8F4F07
:102860009F4F16C0882311F096E911C0772321F0FD
:102870009EE8872F762F05C0662371F096E8862F95
:1028800070E060E02AF09A95660F771F881FDAF7EC
:10289000880F9695879597F90895990F0008550F19
:1028A000AA0BE0E8FEEF16161706E807F907C0F0D6
:1028B00012161306E407F50798F0621B730B840BDE
:1028C000950B39F40A2661F0232B242B252B21F4B8
:1028D00008950A2609F4A140A6958FEF811D811D58
:1028E00008950E9484140C94F5140E94E71438F0A3
:1028F0000E94EE1420F0952311F00C94DE140C9439
:10290000E41411240C9429150E94061570F3959F68
:10291000C1F3950F50E0551F629FF001729FBB27D6
:10292000F00DB11D639FAA27F00DB11DAA1F649F72
:102930006627B00DA11D661F829F2227B00DA11D25
:10294000621F739FB00DA11D621F839FA00D611DAB
:10295000221F749F3327A00D611D231F849F600DCC
:10296000211D822F762F6A2F11249F5750409AF0F5
:10297000F1F088234AF0EE0FFF1FBB1F661F771F81
:10298000881F91505040A9F79E3F510580F00C944C
:10299000DE140C9429155F3FE4F3983ED4F386953A
:1029A00077956795B795F795E7959F5FC1F7FE2BEC
:1029B000880F911D9695879597F9089597F99F67C8
:1029C00080E870E060E008959FEF80EC08950024B7
:1029D0000A941616170618060906089500240A9484
:1029E00012161306140605060895092E0394000C0A
:1029F00011F4882352F0BB0F40F4BF2B11F460FF99
:102A000004C06F5F7F4F8F4F9F4F089557FD9058C1
:102A1000440F551F59F05F3F71F04795880F97FBA2
:102A2000991F61F09F3F79F087950895121613065C
:102A30001406551FF2CF4695F1DF08C0161617068B
:102A40001806991FF1CF86957105610508940895C0
:102A5000E894BB2766277727CB0197F90895F99962
:102A6000FECF92BD81BDF89A992780B50895262F93
:102A7000F999FECF1FBA92BD81BD20BD0FB6F89463
:102A8000FA9AF99A0FBE01960895A1E21A2EAA1B8E
:102A9000BB1BFD010DC0AA1FBB1FEE1FFF1FA2170E
:102AA000B307E407F50720F0A21BB30BE40BF50B0B
:102AB000661F771F881F991F1A9469F76095709594
:102AC000809590959B01AC01BD01CF0108952F9297
:102AD0003F924F925F926F927F928F929F92AF92AE
:102AE000BF92CF92DF92EF92FF920F931F93CF93FB
:102AF000DF93CDB7DEB7CA1BDB0B0FB6F894DEBF92
:102B00000FBECDBF09942A88398848885F846E84B7
:102B10007D848C849B84AA84B984C884DF80EE8001
:102B2000FD800C811B81AA81B981CE0FD11D0FB60A
:102B3000F894DEBF0FBECDBFED0108950E94A5152C
:102B40006894B1110C94291508950E940E1588F00F
:102B50009F5798F0B92F9927B751B0F0E1F0660F61
:102B6000771F881F991F1AF0BA95C9F714C0B130A2
:102B700091F00E942815B1E008950C942815672F54
:102B8000782F8827B85F39F0B93FCCF386957795D1
:102B90006795B395D9F73EF49095809570956195BA
:102BA0007F4F8F4F9F4F089597FB072E16F4009489
:102BB00007D077FD09D00E94E81507FC05D03EF448
:102BC000909581959F4F0895709561957F4F0895D9
:102BD000AA1BBB1B51E107C0AA1FBB1FA617B70743
:102BE00010F0A61BB70B881F991F5A95A9F780955F
:102BF0009095BC01CD010895EE0FFF1F0590F49153
:102C0000E02D09940F931F93CF93DF9382309105AA
:102C100010F482E090E0E0919006F091910620E0BF
:102C200030E0A0E0B0E0309719F14081518102819D
:102C3000138148175907C8F08417950769F410974E
:102C400031F012960C93129713961C9327C00093A1
:102C500090061093910622C02115310519F04217F4
:102C6000530718F49A01BD01EF01DF01F801DBCF32
:102C700021153105F9F0281B390B2430310580F47A
:102C80008A819B816115710521F0FB019383828309
:102C900004C09093910680939006FE01329644C042
:102CA000FE01E20FF31F8193919322503109398382
:102CB00028833AC020918E0630918F06232B41F451
:102CC000209102013091030130938F0620938E06EC
:102CD00020910001309101012115310541F42DB7FA
:102CE0003EB74091040150910501241B350BE09142
:102CF0008E06F0918F06E217F307A0F42E1B3F0B10
:102D00002817390778F0AC014E5F5F4F241735075D
:102D100048F04E0F5F1F50938F0640938E068193AD
:102D2000919302C0E0E0F0E0CF01DF91CF911F91DD
:102D30000F910895CF93DF93009709F481C0FC01B0
:102D4000329713821282A0919006B091910610974B
:102D500081F420813181820F931F20918E06309162
:102D60008F062817390751F5F0938F06E0938E06EA
:102D700067C0ED0120E030E0CE17DF0740F44A8164
:102D80005B819E0141155105F1F0EA01F5CFD38336
:102D9000C28340815181840F951FC817D90759F408
:102DA00088819981840F951F0296918380838A81FF
:102DB0009B81938382832115310529F4F093910639
:102DC000E09390063DC0E901FB83EA834991599164
:102DD000C40FD51FEC17FD0761F480819181840F2A
:102DE000951F0296E90199838883828193819B8351
:102DF0008A83E0E0F0E012968D919C911397009702
:102E000019F0FD01DC01F7CF8D919C9111979D0187
:102E10002E5F3F4F820F931F20918E0630918F06B9
:102E20002817390769F4309729F410929106109207
:102E3000900602C013821282B0938F06A0938E0672
:102E4000DF91CF910895A0E0B0E0E9E2F7E10C94C2
:102E50006B15EC01009721F4CB010E940216B4C05F
:102E6000FC01E60FF71F9C0122503109E217F3071E
:102E700008F4A8C0D9010D911C91119706171707E6
:102E8000B0F00530110508F49BC0C80104978617FF
:102E9000970708F495C002501109061B170B019300
:102EA00011936D937C93CF010E949A1689C05B01A8
:102EB000A01AB10A4C01800E911EA0919006B0910B
:102EC0009106612C712CE12CF12C109709F446C06D
:102ED0008D919C911197A815B905B1F56C0142E04F
:102EE000C40ED11CCA14DB0478F14C018A189B086B
:102EF000640142E0C40ED11C1296BC901297139646
:102F0000AC91B5E0CB16D10440F0B282A38391829C
:102F10008082D9016D937C9309C00E5F1F4F800F93
:102F2000911FF90191838083EB2DFA2FE114F104B5
:102F300031F0D7011396FC93EE93129741C0F093B2
:102F40009106E09390063CC06816790608F43C01AF
:102F50007D0112960D90BC91A02DB7CF80918E0669
:102F600090918F0688169906E1F466167706C8F4E4
:102F70008091000190910101009741F48DB79EB7B7
:102F80004091040150910501841B950BE817F90746
:102F9000C8F4F0938F06E0938E06F9017183608385
:102FA0000FC0CB010E9402167C01009759F0A801C6
:102FB000BE010E94EE17CE010E949A16C70104C0FE
:102FC000CE0102C080E090E0CDB7DEB7EEE00C9419
:102FD000871581E090E0F8940C940718FB01DC0160
:102FE00002C001900D9241505040D8F70895FB0166
:102FF000DC018D91019080190110D9F3990B08958E
:10300000FB01DC0101900D920020E1F70895F89496
:02301000FFCFF0
:1030120000009206800000000000F900CB0790003B
:103022004601C1009F00B300564D4450565F317CAB
:10303200315F564D4450560D0A005072657373202D
:1030420061206B657920796F75206C696B650073FF
:1030520074617274006F757400506C6561736520E1
:10306200696E70757420746865206974656D207965
:103072006F752077616E74006368616E6765636F58
:103082006C6F7267726F75700066756E6374696FCC
:103092006E5F3100546865206D6F6465206973202E
:1030A200746F206368616E67652074686520636F62
:1030B2006C6F722067726F757000506C656173651A
:1030C20020696E7075742074686520636F72726512
:1030D20063742064617461004F4B0054686520641E
:1030E20061746120636F6E7461696E20616C7068D7
:1030F2006128732900667265656C79636F6D626918
:103102006E65636F6C6F720066756E6374696F6E65
:103112005F3200546865206D6F64652069732074A6
:103122006F20636F6D62696E652061206E65772026
:1031320067726F7570207768617420796F75207778
:10314200616E7400546865206E756D626572206FE1
:1031520066207468652064617461206973206E6FF3
:103162007420656E6F756768206F7220746F6F20B0
:103172006D616E79005468652064617461206172CA
:1031820065206265796F6E6420746865206C696D74
:103192006974006368616E6765696E73696465630B
:1031A2006F6C6F720066756E6374696F6E5F330069
:1031B200546865206D6F646520697320746F2063A5
:1031C20068616E67652074686520636F6C6F7273E7
:1031D20020636F6E7461696E656400506C65617323
:1031E2006520696E70757420796F757220646174E0
:1031F20061206F6620746865206164647265737310
:1032020000506C6561736520696E70757420796F0A
:1032120075722064617461206F6620746865206332
:103222006F6C6F722076616C7565730054686520EF
:103232006E756D626572206F662074686520636FBB
:103242006C6F722076616C756573206973206E6F86
:103252007420656E6F756768206F7220746F6F20BF
:103262006D616E7900546865206E756D62657220BD
:103272006F662061646472657373206973206E6F78
:103282007420657175616C20746F20636F6C6F724E
:103292002076616C756573005468652064617461A1
:1032A200206F6620636F6C6F722076616C75657338
:1032B20020636F6E7461696E20616C70686128733F
:1032C2002900546865206E756D626572206F6620F4
:1032D2007468652061646472657373206973206E1B
:1032E2006F7420656E6F756768206F7220746F6FE0
:1032F200206D616E79005468652064617461206F8D
:103302006620616464726573732061726520626510
:10331200796F6E6420746865206C696D69740054FD
:1033220068652064617461206F66206164647265FF
:10333200737320636F6E7461696E20616C70686173
:10334200287329006368616E6765667265717565C9
:103352006E63790066756E6374696F6E5F340054D4
:103362006865206D6F646520697320746F206368DF
:10337200616E676520746865206672657175656E39
:10338200637973005370656369616C4C6967687433
:103392004D6F64650066756E6374696F6E5F3500AC
:1033A200546865206D6F646520697320746F2069AD
:1033B2006E70757420746865205370656369616C02
:1033C2004C696768744D6F64652064657369676EE4
:1033D20000506C6561736520696E70757420746845
:1033E200652061646472657373283120746F2034C0
:1033F2002900546865206C656E677468206F6620CA
:1034020064617461206973206265796F6E64206CF7
:10341200696D6974005468657265206973206E6F06
:1034220074207375636820612066756E6374696FBA
:103432006E00626C7565746F6F746820656E6400EF
:103442006A756D703B00506C6561736520696E70C2
:10345200757420796F75722064617461003B636FCB
:0A3462006C6F726E616D653D000035
:00000001FF
